{
  "_format": "hh-sol-artifact-1",
  "contractName": "ArtCollectible",
  "sourceName": "contracts/ArtCollectible.sol",
  "abi": [
    {
      "inputs": [],
      "stateMutability": "nonpayable",
      "type": "constructor"
    },
    {
      "anonymous": false,
      "inputs": [
        {
          "indexed": true,
          "internalType": "address",
          "name": "owner",
          "type": "address"
        },
        {
          "indexed": true,
          "internalType": "address",
          "name": "approved",
          "type": "address"
        },
        {
          "indexed": true,
          "internalType": "uint256",
          "name": "tokenId",
          "type": "uint256"
        }
      ],
      "name": "Approval",
      "type": "event"
    },
    {
      "anonymous": false,
      "inputs": [
        {
          "indexed": true,
          "internalType": "address",
          "name": "owner",
          "type": "address"
        },
        {
          "indexed": true,
          "internalType": "address",
          "name": "operator",
          "type": "address"
        },
        {
          "indexed": false,
          "internalType": "bool",
          "name": "approved",
          "type": "bool"
        }
      ],
      "name": "ApprovalForAll",
      "type": "event"
    },
    {
      "anonymous": false,
      "inputs": [
        {
          "indexed": true,
          "internalType": "address",
          "name": "previousOwner",
          "type": "address"
        },
        {
          "indexed": true,
          "internalType": "address",
          "name": "newOwner",
          "type": "address"
        }
      ],
      "name": "OwnershipTransferred",
      "type": "event"
    },
    {
      "anonymous": false,
      "inputs": [
        {
          "indexed": true,
          "internalType": "address",
          "name": "from",
          "type": "address"
        },
        {
          "indexed": true,
          "internalType": "address",
          "name": "to",
          "type": "address"
        },
        {
          "indexed": true,
          "internalType": "uint256",
          "name": "tokenId",
          "type": "uint256"
        }
      ],
      "name": "Transfer",
      "type": "event"
    },
    {
      "inputs": [
        {
          "internalType": "address",
          "name": "to",
          "type": "address"
        },
        {
          "internalType": "uint256",
          "name": "tokenId",
          "type": "uint256"
        }
      ],
      "name": "approve",
      "outputs": [],
      "stateMutability": "nonpayable",
      "type": "function"
    },
    {
      "inputs": [
        {
          "internalType": "address",
          "name": "owner",
          "type": "address"
        }
      ],
      "name": "balanceOf",
      "outputs": [
        {
          "internalType": "uint256",
          "name": "",
          "type": "uint256"
        }
      ],
      "stateMutability": "view",
      "type": "function"
    },
    {
      "inputs": [
        {
          "internalType": "string",
          "name": "tokenURI",
          "type": "string"
        }
      ],
      "name": "claimItem",
      "outputs": [
        {
          "internalType": "uint256",
          "name": "",
          "type": "uint256"
        }
      ],
      "stateMutability": "nonpayable",
      "type": "function"
    },
    {
      "inputs": [
        {
          "internalType": "uint256",
          "name": "tokenId",
          "type": "uint256"
        }
      ],
      "name": "getApproved",
      "outputs": [
        {
          "internalType": "address",
          "name": "",
          "type": "address"
        }
      ],
      "stateMutability": "view",
      "type": "function"
    },
    {
      "inputs": [
        {
          "internalType": "address",
          "name": "owner",
          "type": "address"
        },
        {
          "internalType": "address",
          "name": "operator",
          "type": "address"
        }
      ],
      "name": "isApprovedForAll",
      "outputs": [
        {
          "internalType": "bool",
          "name": "",
          "type": "bool"
        }
      ],
      "stateMutability": "view",
      "type": "function"
    },
    {
      "inputs": [],
      "name": "name",
      "outputs": [
        {
          "internalType": "string",
          "name": "",
          "type": "string"
        }
      ],
      "stateMutability": "view",
      "type": "function"
    },
    {
      "inputs": [],
      "name": "owner",
      "outputs": [
        {
          "internalType": "address",
          "name": "",
          "type": "address"
        }
      ],
      "stateMutability": "view",
      "type": "function"
    },
    {
      "inputs": [
        {
          "internalType": "uint256",
          "name": "tokenId",
          "type": "uint256"
        }
      ],
      "name": "ownerOf",
      "outputs": [
        {
          "internalType": "address",
          "name": "",
          "type": "address"
        }
      ],
      "stateMutability": "view",
      "type": "function"
    },
    {
      "inputs": [],
      "name": "renounceOwnership",
      "outputs": [],
      "stateMutability": "nonpayable",
      "type": "function"
    },
    {
      "inputs": [
        {
          "internalType": "address",
          "name": "from",
          "type": "address"
        },
        {
          "internalType": "address",
          "name": "to",
          "type": "address"
        },
        {
          "internalType": "uint256",
          "name": "tokenId",
          "type": "uint256"
        }
      ],
      "name": "safeTransferFrom",
      "outputs": [],
      "stateMutability": "nonpayable",
      "type": "function"
    },
    {
      "inputs": [
        {
          "internalType": "address",
          "name": "from",
          "type": "address"
        },
        {
          "internalType": "address",
          "name": "to",
          "type": "address"
        },
        {
          "internalType": "uint256",
          "name": "tokenId",
          "type": "uint256"
        },
        {
          "internalType": "bytes",
          "name": "_data",
          "type": "bytes"
        }
      ],
      "name": "safeTransferFrom",
      "outputs": [],
      "stateMutability": "nonpayable",
      "type": "function"
    },
    {
      "inputs": [
        {
          "internalType": "address",
          "name": "operator",
          "type": "address"
        },
        {
          "internalType": "bool",
          "name": "approved",
          "type": "bool"
        }
      ],
      "name": "setApprovalForAll",
      "outputs": [],
      "stateMutability": "nonpayable",
      "type": "function"
    },
    {
      "inputs": [
        {
          "internalType": "string",
          "name": "baseURI_",
          "type": "string"
        }
      ],
      "name": "setBaseURI",
      "outputs": [],
      "stateMutability": "nonpayable",
      "type": "function"
    },
    {
      "inputs": [
        {
          "internalType": "bytes4",
          "name": "interfaceId",
          "type": "bytes4"
        }
      ],
      "name": "supportsInterface",
      "outputs": [
        {
          "internalType": "bool",
          "name": "",
          "type": "bool"
        }
      ],
      "stateMutability": "view",
      "type": "function"
    },
    {
      "inputs": [],
      "name": "symbol",
      "outputs": [
        {
          "internalType": "string",
          "name": "",
          "type": "string"
        }
      ],
      "stateMutability": "view",
      "type": "function"
    },
    {
      "inputs": [
        {
          "internalType": "uint256",
          "name": "tokenId",
          "type": "uint256"
        }
      ],
      "name": "tokenURI",
      "outputs": [
        {
          "internalType": "string",
          "name": "",
          "type": "string"
        }
      ],
      "stateMutability": "view",
      "type": "function"
    },
    {
      "inputs": [],
      "name": "totalSupply",
      "outputs": [
        {
          "internalType": "uint256",
          "name": "",
          "type": "uint256"
        }
      ],
      "stateMutability": "view",
      "type": "function"
    },
    {
      "inputs": [
        {
          "internalType": "address",
          "name": "from",
          "type": "address"
        },
        {
          "internalType": "address",
          "name": "to",
          "type": "address"
        },
        {
          "internalType": "uint256",
          "name": "tokenId",
          "type": "uint256"
        }
      ],
      "name": "transferFrom",
      "outputs": [],
      "stateMutability": "nonpayable",
      "type": "function"
    },
    {
      "inputs": [
        {
          "internalType": "address",
          "name": "newOwner",
          "type": "address"
        }
      ],
      "name": "transferOwnership",
      "outputs": [],
      "stateMutability": "nonpayable",
      "type": "function"
    }
  ],
  "bytecode": "0x60806040523480156200001157600080fd5b506040518060400160405280600e81526020017f617274436f6c6c65637469626c650000000000000000000000000000000000008152506040518060400160405280600481526020017f41525443000000000000000000000000000000000000000000000000000000008152506200009e62000092620000d860201b60201c565b620000e060201b60201c565b8160019080519060200190620000b6929190620001a4565b508060029080519060200190620000cf929190620001a4565b505050620002b9565b600033905090565b60008060009054906101000a900473ffffffffffffffffffffffffffffffffffffffff169050816000806101000a81548173ffffffffffffffffffffffffffffffffffffffff021916908373ffffffffffffffffffffffffffffffffffffffff1602179055508173ffffffffffffffffffffffffffffffffffffffff168173ffffffffffffffffffffffffffffffffffffffff167f8be0079c531659141344cd1fd0a4f28419497f9722a3daafe3b4186f6b6457e060405160405180910390a35050565b828054620001b29062000254565b90600052602060002090601f016020900481019282620001d6576000855562000222565b82601f10620001f157805160ff191683800117855562000222565b8280016001018555821562000222579182015b828111156200022157825182559160200191906001019062000204565b5b50905062000231919062000235565b5090565b5b808211156200025057600081600090555060010162000236565b5090565b600060028204905060018216806200026d57607f821691505b602082108114156200028457620002836200028a565b5b50919050565b7f4e487b7100000000000000000000000000000000000000000000000000000000600052602260045260246000fd5b61302980620002c96000396000f3fe608060405234801561001057600080fd5b50600436106101215760003560e01c806370a08231116100ad578063a850e8bd11610071578063a850e8bd146102f4578063b88d4fde14610324578063c87b56dd14610340578063e985e9c514610370578063f2fde38b146103a057610121565b806370a0823114610262578063715018a6146102925780638da5cb5b1461029c57806395d89b41146102ba578063a22cb465146102d857610121565b806318160ddd116100f457806318160ddd146101c057806323b872dd146101de57806342842e0e146101fa57806355f804b3146102165780636352211e1461023257610121565b806301ffc9a71461012657806306fdde0314610156578063081812fc14610174578063095ea7b3146101a4575b600080fd5b610140600480360381019061013b9190612029565b6103bc565b60405161014d9190612493565b60405180910390f35b61015e61049e565b60405161016b91906124ae565b60405180910390f35b61018e600480360381019061018991906120bc565b610530565b60405161019b919061242c565b60405180910390f35b6101be60048036038101906101b99190611fed565b6105b5565b005b6101c86106cd565b6040516101d591906126f0565b60405180910390f35b6101f860048036038101906101f39190611ee7565b6106de565b005b610214600480360381019061020f9190611ee7565b61073e565b005b610230600480360381019061022b919061207b565b61075e565b005b61024c600480360381019061024791906120bc565b6107f4565b604051610259919061242c565b60405180910390f35b61027c60048036038101906102779190611e82565b6108a6565b60405161028991906126f0565b60405180910390f35b61029a61095e565b005b6102a46109e6565b6040516102b1919061242c565b60405180910390f35b6102c2610a0f565b6040516102cf91906124ae565b60405180910390f35b6102f260048036038101906102ed9190611fb1565b610aa1565b005b61030e6004803603810190610309919061207b565b610ab7565b60405161031b91906126f0565b60405180910390f35b61033e60048036038101906103399190611f36565b610aee565b005b61035a600480360381019061035591906120bc565b610b50565b60405161036791906124ae565b60405180910390f35b61038a60048036038101906103859190611eab565b610cc3565b6040516103979190612493565b60405180910390f35b6103ba60048036038101906103b59190611e82565b610d57565b005b60007f80ac58cd000000000000000000000000000000000000000000000000000000007bffffffffffffffffffffffffffffffffffffffffffffffffffffffff1916827bffffffffffffffffffffffffffffffffffffffffffffffffffffffff1916148061048757507f5b5e139f000000000000000000000000000000000000000000000000000000007bffffffffffffffffffffffffffffffffffffffffffffffffffffffff1916827bffffffffffffffffffffffffffffffffffffffffffffffffffffffff1916145b80610497575061049682610e4f565b5b9050919050565b6060600180546104ad90612946565b80601f01602080910402602001604051908101604052809291908181526020018280546104d990612946565b80156105265780601f106104fb57610100808354040283529160200191610526565b820191906000526020600020905b81548152906001019060200180831161050957829003601f168201915b5050505050905090565b600061053b82610eb9565b61057a576040517f08c379a000000000000000000000000000000000000000000000000000000000815260040161057190612630565b60405180910390fd5b6005600083815260200190815260200160002060009054906101000a900473ffffffffffffffffffffffffffffffffffffffff169050919050565b60006105c0826107f4565b90508073ffffffffffffffffffffffffffffffffffffffff168373ffffffffffffffffffffffffffffffffffffffff161415610631576040517f08c379a0000000000000000000000000000000000000000000000000000000008152600401610628906126b0565b60405180910390fd5b8073ffffffffffffffffffffffffffffffffffffffff16610650610f25565b73ffffffffffffffffffffffffffffffffffffffff16148061067f575061067e81610679610f25565b610cc3565b5b6106be576040517f08c379a00000000000000000000000000000000000000000000000000000000081526004016106b5906125b0565b60405180910390fd5b6106c88383610f2d565b505050565b60006106d96007610fe6565b905090565b6106ef6106e9610f25565b82610ff4565b61072e576040517f08c379a0000000000000000000000000000000000000000000000000000000008152600401610725906126d0565b60405180910390fd5b6107398383836110d2565b505050565b61075983838360405180602001604052806000815250610aee565b505050565b610766610f25565b73ffffffffffffffffffffffffffffffffffffffff166107846109e6565b73ffffffffffffffffffffffffffffffffffffffff16146107da576040517f08c379a00000000000000000000000000000000000000000000000000000000081526004016107d190612670565b60405180910390fd5b80600990805190602001906107f0929190611ca6565b5050565b6000806003600084815260200190815260200160002060009054906101000a900473ffffffffffffffffffffffffffffffffffffffff169050600073ffffffffffffffffffffffffffffffffffffffff168173ffffffffffffffffffffffffffffffffffffffff16141561089d576040517f08c379a0000000000000000000000000000000000000000000000000000000008152600401610894906125f0565b60405180910390fd5b80915050919050565b60008073ffffffffffffffffffffffffffffffffffffffff168273ffffffffffffffffffffffffffffffffffffffff161415610917576040517f08c379a000000000000000000000000000000000000000000000000000000000815260040161090e906125d0565b60405180910390fd5b600460008373ffffffffffffffffffffffffffffffffffffffff1673ffffffffffffffffffffffffffffffffffffffff168152602001908152602001600020549050919050565b610966610f25565b73ffffffffffffffffffffffffffffffffffffffff166109846109e6565b73ffffffffffffffffffffffffffffffffffffffff16146109da576040517f08c379a00000000000000000000000000000000000000000000000000000000081526004016109d190612670565b60405180910390fd5b6109e46000611339565b565b60008060009054906101000a900473ffffffffffffffffffffffffffffffffffffffff16905090565b606060028054610a1e90612946565b80601f0160208091040260200160405190810160405280929190818152602001828054610a4a90612946565b8015610a975780601f10610a6c57610100808354040283529160200191610a97565b820191906000526020600020905b815481529060010190602001808311610a7a57829003601f168201915b5050505050905090565b610ab3610aac610f25565b83836113fd565b5050565b6000610ac3600761156a565b6000610acf6007610fe6565b9050610adb3382611580565b610ae5818461159e565b80915050919050565b610aff610af9610f25565b83610ff4565b610b3e576040517f08c379a0000000000000000000000000000000000000000000000000000000008152600401610b35906126d0565b60405180910390fd5b610b4a84848484611612565b50505050565b6060610b5b82610eb9565b610b9a576040517f08c379a0000000000000000000000000000000000000000000000000000000008152600401610b9190612690565b60405180910390fd5b6000600860008481526020019081526020016000208054610bba90612946565b80601f0160208091040260200160405190810160405280929190818152602001828054610be690612946565b8015610c335780601f10610c0857610100808354040283529160200191610c33565b820191906000526020600020905b815481529060010190602001808311610c1657829003601f168201915b505050505090506000610c4461166e565b9050600081511415610c5a578192505050610cbe565b600082511115610c8f578082604051602001610c77929190612408565b60405160208183030381529060405292505050610cbe565b80610c9985611700565b604051602001610caa929190612408565b604051602081830303815290604052925050505b919050565b6000600660008473ffffffffffffffffffffffffffffffffffffffff1673ffffffffffffffffffffffffffffffffffffffff16815260200190815260200160002060008373ffffffffffffffffffffffffffffffffffffffff1673ffffffffffffffffffffffffffffffffffffffff16815260200190815260200160002060009054906101000a900460ff16905092915050565b610d5f610f25565b73ffffffffffffffffffffffffffffffffffffffff16610d7d6109e6565b73ffffffffffffffffffffffffffffffffffffffff1614610dd3576040517f08c379a0000000000000000000000000000000000000000000000000000000008152600401610dca90612670565b60405180910390fd5b600073ffffffffffffffffffffffffffffffffffffffff168173ffffffffffffffffffffffffffffffffffffffff161415610e43576040517f08c379a0000000000000000000000000000000000000000000000000000000008152600401610e3a906124f0565b60405180910390fd5b610e4c81611339565b50565b60007f01ffc9a7000000000000000000000000000000000000000000000000000000007bffffffffffffffffffffffffffffffffffffffffffffffffffffffff1916827bffffffffffffffffffffffffffffffffffffffffffffffffffffffff1916149050919050565b60008073ffffffffffffffffffffffffffffffffffffffff166003600084815260200190815260200160002060009054906101000a900473ffffffffffffffffffffffffffffffffffffffff1673ffffffffffffffffffffffffffffffffffffffff1614159050919050565b600033905090565b816005600083815260200190815260200160002060006101000a81548173ffffffffffffffffffffffffffffffffffffffff021916908373ffffffffffffffffffffffffffffffffffffffff160217905550808273ffffffffffffffffffffffffffffffffffffffff16610fa0836107f4565b73ffffffffffffffffffffffffffffffffffffffff167f8c5be1e5ebec7d5bd14f71427d1e84f3dd0314c0f7b2291e5b200ac8c7c3b92560405160405180910390a45050565b600081600001549050919050565b6000610fff82610eb9565b61103e576040517f08c379a000000000000000000000000000000000000000000000000000000000815260040161103590612590565b60405180910390fd5b6000611049836107f4565b90508073ffffffffffffffffffffffffffffffffffffffff168473ffffffffffffffffffffffffffffffffffffffff16148061108b575061108a8185610cc3565b5b806110c957508373ffffffffffffffffffffffffffffffffffffffff166110b184610530565b73ffffffffffffffffffffffffffffffffffffffff16145b91505092915050565b8273ffffffffffffffffffffffffffffffffffffffff166110f2826107f4565b73ffffffffffffffffffffffffffffffffffffffff1614611148576040517f08c379a000000000000000000000000000000000000000000000000000000000815260040161113f90612510565b60405180910390fd5b600073ffffffffffffffffffffffffffffffffffffffff168273ffffffffffffffffffffffffffffffffffffffff1614156111b8576040517f08c379a00000000000000000000000000000000000000000000000000000000081526004016111af90612550565b60405180910390fd5b6111c38383836118ad565b6111ce600082610f2d565b6001600460008573ffffffffffffffffffffffffffffffffffffffff1673ffffffffffffffffffffffffffffffffffffffff168152602001908152602001600020600082825461121e919061285c565b925050819055506001600460008473ffffffffffffffffffffffffffffffffffffffff1673ffffffffffffffffffffffffffffffffffffffff168152602001908152602001600020600082825461127591906127d5565b92505081905550816003600083815260200190815260200160002060006101000a81548173ffffffffffffffffffffffffffffffffffffffff021916908373ffffffffffffffffffffffffffffffffffffffff160217905550808273ffffffffffffffffffffffffffffffffffffffff168473ffffffffffffffffffffffffffffffffffffffff167fddf252ad1be2c89b69c2b068fc378daa952ba7f163c4a11628f55a4df523b3ef60405160405180910390a46113348383836118b2565b505050565b60008060009054906101000a900473ffffffffffffffffffffffffffffffffffffffff169050816000806101000a81548173ffffffffffffffffffffffffffffffffffffffff021916908373ffffffffffffffffffffffffffffffffffffffff1602179055508173ffffffffffffffffffffffffffffffffffffffff168173ffffffffffffffffffffffffffffffffffffffff167f8be0079c531659141344cd1fd0a4f28419497f9722a3daafe3b4186f6b6457e060405160405180910390a35050565b8173ffffffffffffffffffffffffffffffffffffffff168373ffffffffffffffffffffffffffffffffffffffff16141561146c576040517f08c379a000000000000000000000000000000000000000000000000000000000815260040161146390612570565b60405180910390fd5b80600660008573ffffffffffffffffffffffffffffffffffffffff1673ffffffffffffffffffffffffffffffffffffffff16815260200190815260200160002060008473ffffffffffffffffffffffffffffffffffffffff1673ffffffffffffffffffffffffffffffffffffffff16815260200190815260200160002060006101000a81548160ff0219169083151502179055508173ffffffffffffffffffffffffffffffffffffffff168373ffffffffffffffffffffffffffffffffffffffff167f17307eab39ab6107e8899845ad3d59bd9653f200f220920489ca2b5937696c318360405161155d9190612493565b60405180910390a3505050565b6001816000016000828254019250508190555050565b61159a8282604051806020016040528060008152506118b7565b5050565b6115a782610eb9565b6115e6576040517f08c379a00000000000000000000000000000000000000000000000000000000081526004016115dd90612650565b60405180910390fd5b8060086000848152602001908152602001600020908051906020019061160d929190611ca6565b505050565b61161d8484846110d2565b61162984848484611912565b611668576040517f08c379a000000000000000000000000000000000000000000000000000000000815260040161165f906124d0565b60405180910390fd5b50505050565b60606009805461167d90612946565b80601f01602080910402602001604051908101604052809291908181526020018280546116a990612946565b80156116f65780601f106116cb576101008083540402835291602001916116f6565b820191906000526020600020905b8154815290600101906020018083116116d957829003601f168201915b5050505050905090565b60606000821415611748576040518060400160405280600181526020017f300000000000000000000000000000000000000000000000000000000000000081525090506118a8565b600082905060005b6000821461177a578080611763906129a9565b915050600a82611773919061282b565b9150611750565b60008167ffffffffffffffff8111156117bc577f4e487b7100000000000000000000000000000000000000000000000000000000600052604160045260246000fd5b6040519080825280601f01601f1916602001820160405280156117ee5781602001600182028036833780820191505090505b5090505b600085146118a157600182611807919061285c565b9150600a8561181691906129f2565b603061182291906127d5565b60f81b81838151811061185e577f4e487b7100000000000000000000000000000000000000000000000000000000600052603260045260246000fd5b60200101907effffffffffffffffffffffffffffffffffffffffffffffffffffffffffffff1916908160001a905350600a8561189a919061282b565b94506117f2565b8093505050505b919050565b505050565b505050565b6118c18383611aa9565b6118ce6000848484611912565b61190d576040517f08c379a0000000000000000000000000000000000000000000000000000000008152600401611904906124d0565b60405180910390fd5b505050565b60006119338473ffffffffffffffffffffffffffffffffffffffff16611c83565b15611a9c578373ffffffffffffffffffffffffffffffffffffffff1663150b7a0261195c610f25565b8786866040518563ffffffff1660e01b815260040161197e9493929190612447565b602060405180830381600087803b15801561199857600080fd5b505af19250505080156119c957506040513d601f19601f820116820180604052508101906119c69190612052565b60015b611a4c573d80600081146119f9576040519150601f19603f3d011682016040523d82523d6000602084013e6119fe565b606091505b50600081511415611a44576040517f08c379a0000000000000000000000000000000000000000000000000000000008152600401611a3b906124d0565b60405180910390fd5b805181602001fd5b63150b7a0260e01b7bffffffffffffffffffffffffffffffffffffffffffffffffffffffff1916817bffffffffffffffffffffffffffffffffffffffffffffffffffffffff191614915050611aa1565b600190505b949350505050565b600073ffffffffffffffffffffffffffffffffffffffff168273ffffffffffffffffffffffffffffffffffffffff161415611b19576040517f08c379a0000000000000000000000000000000000000000000000000000000008152600401611b1090612610565b60405180910390fd5b611b2281610eb9565b15611b62576040517f08c379a0000000000000000000000000000000000000000000000000000000008152600401611b5990612530565b60405180910390fd5b611b6e600083836118ad565b6001600460008473ffffffffffffffffffffffffffffffffffffffff1673ffffffffffffffffffffffffffffffffffffffff1681526020019081526020016000206000828254611bbe91906127d5565b92505081905550816003600083815260200190815260200160002060006101000a81548173ffffffffffffffffffffffffffffffffffffffff021916908373ffffffffffffffffffffffffffffffffffffffff160217905550808273ffffffffffffffffffffffffffffffffffffffff16600073ffffffffffffffffffffffffffffffffffffffff167fddf252ad1be2c89b69c2b068fc378daa952ba7f163c4a11628f55a4df523b3ef60405160405180910390a4611c7f600083836118b2565b5050565b6000808273ffffffffffffffffffffffffffffffffffffffff163b119050919050565b828054611cb290612946565b90600052602060002090601f016020900481019282611cd45760008555611d1b565b82601f10611ced57805160ff1916838001178555611d1b565b82800160010185558215611d1b579182015b82811115611d1a578251825591602001919060010190611cff565b5b509050611d289190611d2c565b5090565b5b80821115611d45576000816000905550600101611d2d565b5090565b6000611d5c611d5784612730565b61270b565b905082815260208101848484011115611d7457600080fd5b611d7f848285612904565b509392505050565b6000611d9a611d9584612761565b61270b565b905082815260208101848484011115611db257600080fd5b611dbd848285612904565b509392505050565b600081359050611dd481612f97565b92915050565b600081359050611de981612fae565b92915050565b600081359050611dfe81612fc5565b92915050565b600081519050611e1381612fc5565b92915050565b600082601f830112611e2a57600080fd5b8135611e3a848260208601611d49565b91505092915050565b600082601f830112611e5457600080fd5b8135611e64848260208601611d87565b91505092915050565b600081359050611e7c81612fdc565b92915050565b600060208284031215611e9457600080fd5b6000611ea284828501611dc5565b91505092915050565b60008060408385031215611ebe57600080fd5b6000611ecc85828601611dc5565b9250506020611edd85828601611dc5565b9150509250929050565b600080600060608486031215611efc57600080fd5b6000611f0a86828701611dc5565b9350506020611f1b86828701611dc5565b9250506040611f2c86828701611e6d565b9150509250925092565b60008060008060808587031215611f4c57600080fd5b6000611f5a87828801611dc5565b9450506020611f6b87828801611dc5565b9350506040611f7c87828801611e6d565b925050606085013567ffffffffffffffff811115611f9957600080fd5b611fa587828801611e19565b91505092959194509250565b60008060408385031215611fc457600080fd5b6000611fd285828601611dc5565b9250506020611fe385828601611dda565b9150509250929050565b6000806040838503121561200057600080fd5b600061200e85828601611dc5565b925050602061201f85828601611e6d565b9150509250929050565b60006020828403121561203b57600080fd5b600061204984828501611def565b91505092915050565b60006020828403121561206457600080fd5b600061207284828501611e04565b91505092915050565b60006020828403121561208d57600080fd5b600082013567ffffffffffffffff8111156120a757600080fd5b6120b384828501611e43565b91505092915050565b6000602082840312156120ce57600080fd5b60006120dc84828501611e6d565b91505092915050565b6120ee81612890565b82525050565b6120fd816128a2565b82525050565b600061210e82612792565b61211881856127a8565b9350612128818560208601612913565b61213181612adf565b840191505092915050565b60006121478261279d565b61215181856127b9565b9350612161818560208601612913565b61216a81612adf565b840191505092915050565b60006121808261279d565b61218a81856127ca565b935061219a818560208601612913565b80840191505092915050565b60006121b36032836127b9565b91506121be82612af0565b604082019050919050565b60006121d66026836127b9565b91506121e182612b3f565b604082019050919050565b60006121f96025836127b9565b915061220482612b8e565b604082019050919050565b600061221c601c836127b9565b915061222782612bdd565b602082019050919050565b600061223f6024836127b9565b915061224a82612c06565b604082019050919050565b60006122626019836127b9565b915061226d82612c55565b602082019050919050565b6000612285602c836127b9565b915061229082612c7e565b604082019050919050565b60006122a86038836127b9565b91506122b382612ccd565b604082019050919050565b60006122cb602a836127b9565b91506122d682612d1c565b604082019050919050565b60006122ee6029836127b9565b91506122f982612d6b565b604082019050919050565b60006123116020836127b9565b915061231c82612dba565b602082019050919050565b6000612334602c836127b9565b915061233f82612de3565b604082019050919050565b6000612357602c836127b9565b915061236282612e32565b604082019050919050565b600061237a6020836127b9565b915061238582612e81565b602082019050919050565b600061239d602f836127b9565b91506123a882612eaa565b604082019050919050565b60006123c06021836127b9565b91506123cb82612ef9565b604082019050919050565b60006123e36031836127b9565b91506123ee82612f48565b604082019050919050565b612402816128fa565b82525050565b60006124148285612175565b91506124208284612175565b91508190509392505050565b600060208201905061244160008301846120e5565b92915050565b600060808201905061245c60008301876120e5565b61246960208301866120e5565b61247660408301856123f9565b81810360608301526124888184612103565b905095945050505050565b60006020820190506124a860008301846120f4565b92915050565b600060208201905081810360008301526124c8818461213c565b905092915050565b600060208201905081810360008301526124e9816121a6565b9050919050565b60006020820190508181036000830152612509816121c9565b9050919050565b60006020820190508181036000830152612529816121ec565b9050919050565b600060208201905081810360008301526125498161220f565b9050919050565b6000602082019050818103600083015261256981612232565b9050919050565b6000602082019050818103600083015261258981612255565b9050919050565b600060208201905081810360008301526125a981612278565b9050919050565b600060208201905081810360008301526125c98161229b565b9050919050565b600060208201905081810360008301526125e9816122be565b9050919050565b60006020820190508181036000830152612609816122e1565b9050919050565b6000602082019050818103600083015261262981612304565b9050919050565b6000602082019050818103600083015261264981612327565b9050919050565b600060208201905081810360008301526126698161234a565b9050919050565b600060208201905081810360008301526126898161236d565b9050919050565b600060208201905081810360008301526126a981612390565b9050919050565b600060208201905081810360008301526126c9816123b3565b9050919050565b600060208201905081810360008301526126e9816123d6565b9050919050565b600060208201905061270560008301846123f9565b92915050565b6000612715612726565b90506127218282612978565b919050565b6000604051905090565b600067ffffffffffffffff82111561274b5761274a612ab0565b5b61275482612adf565b9050602081019050919050565b600067ffffffffffffffff82111561277c5761277b612ab0565b5b61278582612adf565b9050602081019050919050565b600081519050919050565b600081519050919050565b600082825260208201905092915050565b600082825260208201905092915050565b600081905092915050565b60006127e0826128fa565b91506127eb836128fa565b9250827fffffffffffffffffffffffffffffffffffffffffffffffffffffffffffffffff038211156128205761281f612a23565b5b828201905092915050565b6000612836826128fa565b9150612841836128fa565b92508261285157612850612a52565b5b828204905092915050565b6000612867826128fa565b9150612872836128fa565b92508282101561288557612884612a23565b5b828203905092915050565b600061289b826128da565b9050919050565b60008115159050919050565b60007fffffffff0000000000000000000000000000000000000000000000000000000082169050919050565b600073ffffffffffffffffffffffffffffffffffffffff82169050919050565b6000819050919050565b82818337600083830152505050565b60005b83811015612931578082015181840152602081019050612916565b83811115612940576000848401525b50505050565b6000600282049050600182168061295e57607f821691505b6020821081141561297257612971612a81565b5b50919050565b61298182612adf565b810181811067ffffffffffffffff821117156129a05761299f612ab0565b5b80604052505050565b60006129b4826128fa565b91507fffffffffffffffffffffffffffffffffffffffffffffffffffffffffffffffff8214156129e7576129e6612a23565b5b600182019050919050565b60006129fd826128fa565b9150612a08836128fa565b925082612a1857612a17612a52565b5b828206905092915050565b7f4e487b7100000000000000000000000000000000000000000000000000000000600052601160045260246000fd5b7f4e487b7100000000000000000000000000000000000000000000000000000000600052601260045260246000fd5b7f4e487b7100000000000000000000000000000000000000000000000000000000600052602260045260246000fd5b7f4e487b7100000000000000000000000000000000000000000000000000000000600052604160045260246000fd5b6000601f19601f8301169050919050565b7f4552433732313a207472616e7366657220746f206e6f6e20455243373231526560008201527f63656976657220696d706c656d656e7465720000000000000000000000000000602082015250565b7f4f776e61626c653a206e6577206f776e657220697320746865207a65726f206160008201527f6464726573730000000000000000000000000000000000000000000000000000602082015250565b7f4552433732313a207472616e736665722066726f6d20696e636f72726563742060008201527f6f776e6572000000000000000000000000000000000000000000000000000000602082015250565b7f4552433732313a20746f6b656e20616c7265616479206d696e74656400000000600082015250565b7f4552433732313a207472616e7366657220746f20746865207a65726f2061646460008201527f7265737300000000000000000000000000000000000000000000000000000000602082015250565b7f4552433732313a20617070726f766520746f2063616c6c657200000000000000600082015250565b7f4552433732313a206f70657261746f7220717565727920666f72206e6f6e657860008201527f697374656e7420746f6b656e0000000000000000000000000000000000000000602082015250565b7f4552433732313a20617070726f76652063616c6c6572206973206e6f74206f7760008201527f6e6572206e6f7220617070726f76656420666f7220616c6c0000000000000000602082015250565b7f4552433732313a2062616c616e636520717565727920666f7220746865207a6560008201527f726f206164647265737300000000000000000000000000000000000000000000602082015250565b7f4552433732313a206f776e657220717565727920666f72206e6f6e657869737460008201527f656e7420746f6b656e0000000000000000000000000000000000000000000000602082015250565b7f4552433732313a206d696e7420746f20746865207a65726f2061646472657373600082015250565b7f4552433732313a20617070726f76656420717565727920666f72206e6f6e657860008201527f697374656e7420746f6b656e0000000000000000000000000000000000000000602082015250565b7f4552433732314d657461646174613a2055524920736574206f66206e6f6e657860008201527f697374656e7420746f6b656e0000000000000000000000000000000000000000602082015250565b7f4f776e61626c653a2063616c6c6572206973206e6f7420746865206f776e6572600082015250565b7f4552433732314d657461646174613a2055524920717565727920666f72206e6f60008201527f6e6578697374656e7420746f6b656e0000000000000000000000000000000000602082015250565b7f4552433732313a20617070726f76616c20746f2063757272656e74206f776e6560008201527f7200000000000000000000000000000000000000000000000000000000000000602082015250565b7f4552433732313a207472616e736665722063616c6c6572206973206e6f74206f60008201527f776e6572206e6f7220617070726f766564000000000000000000000000000000602082015250565b612fa081612890565b8114612fab57600080fd5b50565b612fb7816128a2565b8114612fc257600080fd5b50565b612fce816128ae565b8114612fd957600080fd5b50565b612fe5816128fa565b8114612ff057600080fd5b5056fea2646970667358221220283988354f4bf96da6d5020e16dff72c17410accc4a091f63894aa101fac6f9d64736f6c63430008030033",
  "linkReferences": {},
  "deployedLinkReferences": {}
}